{
  "_format": "hh-sol-artifact-1",
  "contractName": "NFTMaker",
  "sourceName": "contracts/NFTMaker.sol",
  "abi": [
    {
      "inputs": [],
      "stateMutability": "nonpayable",
      "type": "constructor"
    },
    {
      "anonymous": false,
      "inputs": [
        {
          "indexed": true,
          "internalType": "address",
          "name": "owner",
          "type": "address"
        },
        {
          "indexed": true,
          "internalType": "address",
          "name": "approved",
          "type": "address"
        },
        {
          "indexed": true,
          "internalType": "uint256",
          "name": "tokenId",
          "type": "uint256"
        }
      ],
      "name": "Approval",
      "type": "event"
    },
    {
      "anonymous": false,
      "inputs": [
        {
          "indexed": true,
          "internalType": "address",
          "name": "owner",
          "type": "address"
        },
        {
          "indexed": true,
          "internalType": "address",
          "name": "operator",
          "type": "address"
        },
        {
          "indexed": false,
          "internalType": "bool",
          "name": "approved",
          "type": "bool"
        }
      ],
      "name": "ApprovalForAll",
      "type": "event"
    },
    {
      "anonymous": false,
      "inputs": [
        {
          "indexed": false,
          "internalType": "address",
          "name": "sender",
          "type": "address"
        },
        {
          "indexed": false,
          "internalType": "uint256",
          "name": "tokenId",
          "type": "uint256"
        }
      ],
      "name": "NewNFTMinted",
      "type": "event"
    },
    {
      "anonymous": false,
      "inputs": [
        {
          "indexed": true,
          "internalType": "address",
          "name": "from",
          "type": "address"
        },
        {
          "indexed": true,
          "internalType": "address",
          "name": "to",
          "type": "address"
        },
        {
          "indexed": true,
          "internalType": "uint256",
          "name": "tokenId",
          "type": "uint256"
        }
      ],
      "name": "Transfer",
      "type": "event"
    },
    {
      "inputs": [
        {
          "internalType": "address",
          "name": "to",
          "type": "address"
        },
        {
          "internalType": "uint256",
          "name": "tokenId",
          "type": "uint256"
        }
      ],
      "name": "approve",
      "outputs": [],
      "stateMutability": "nonpayable",
      "type": "function"
    },
    {
      "inputs": [
        {
          "internalType": "address",
          "name": "owner",
          "type": "address"
        }
      ],
      "name": "balanceOf",
      "outputs": [
        {
          "internalType": "uint256",
          "name": "",
          "type": "uint256"
        }
      ],
      "stateMutability": "view",
      "type": "function"
    },
    {
      "inputs": [
        {
          "internalType": "uint256",
          "name": "tokenId",
          "type": "uint256"
        }
      ],
      "name": "getApproved",
      "outputs": [
        {
          "internalType": "address",
          "name": "",
          "type": "address"
        }
      ],
      "stateMutability": "view",
      "type": "function"
    },
    {
      "inputs": [
        {
          "internalType": "address",
          "name": "owner",
          "type": "address"
        },
        {
          "internalType": "address",
          "name": "operator",
          "type": "address"
        }
      ],
      "name": "isApprovedForAll",
      "outputs": [
        {
          "internalType": "bool",
          "name": "",
          "type": "bool"
        }
      ],
      "stateMutability": "view",
      "type": "function"
    },
    {
      "inputs": [
        {
          "internalType": "string",
          "name": "name",
          "type": "string"
        },
        {
          "internalType": "string",
          "name": "imageURI",
          "type": "string"
        }
      ],
      "name": "mintNFT",
      "outputs": [],
      "stateMutability": "nonpayable",
      "type": "function"
    },
    {
      "inputs": [],
      "name": "name",
      "outputs": [
        {
          "internalType": "string",
          "name": "",
          "type": "string"
        }
      ],
      "stateMutability": "view",
      "type": "function"
    },
    {
      "inputs": [
        {
          "internalType": "uint256",
          "name": "tokenId",
          "type": "uint256"
        }
      ],
      "name": "ownerOf",
      "outputs": [
        {
          "internalType": "address",
          "name": "",
          "type": "address"
        }
      ],
      "stateMutability": "view",
      "type": "function"
    },
    {
      "inputs": [
        {
          "internalType": "address",
          "name": "from",
          "type": "address"
        },
        {
          "internalType": "address",
          "name": "to",
          "type": "address"
        },
        {
          "internalType": "uint256",
          "name": "tokenId",
          "type": "uint256"
        }
      ],
      "name": "safeTransferFrom",
      "outputs": [],
      "stateMutability": "nonpayable",
      "type": "function"
    },
    {
      "inputs": [
        {
          "internalType": "address",
          "name": "from",
          "type": "address"
        },
        {
          "internalType": "address",
          "name": "to",
          "type": "address"
        },
        {
          "internalType": "uint256",
          "name": "tokenId",
          "type": "uint256"
        },
        {
          "internalType": "bytes",
          "name": "data",
          "type": "bytes"
        }
      ],
      "name": "safeTransferFrom",
      "outputs": [],
      "stateMutability": "nonpayable",
      "type": "function"
    },
    {
      "inputs": [
        {
          "internalType": "address",
          "name": "operator",
          "type": "address"
        },
        {
          "internalType": "bool",
          "name": "approved",
          "type": "bool"
        }
      ],
      "name": "setApprovalForAll",
      "outputs": [],
      "stateMutability": "nonpayable",
      "type": "function"
    },
    {
      "inputs": [
        {
          "internalType": "bytes4",
          "name": "interfaceId",
          "type": "bytes4"
        }
      ],
      "name": "supportsInterface",
      "outputs": [
        {
          "internalType": "bool",
          "name": "",
          "type": "bool"
        }
      ],
      "stateMutability": "view",
      "type": "function"
    },
    {
      "inputs": [],
      "name": "symbol",
      "outputs": [
        {
          "internalType": "string",
          "name": "",
          "type": "string"
        }
      ],
      "stateMutability": "view",
      "type": "function"
    },
    {
      "inputs": [
        {
          "internalType": "uint256",
          "name": "_tokenId",
          "type": "uint256"
        }
      ],
      "name": "tokenURI",
      "outputs": [
        {
          "internalType": "string",
          "name": "",
          "type": "string"
        }
      ],
      "stateMutability": "view",
      "type": "function"
    },
    {
      "inputs": [
        {
          "internalType": "address",
          "name": "from",
          "type": "address"
        },
        {
          "internalType": "address",
          "name": "to",
          "type": "address"
        },
        {
          "internalType": "uint256",
          "name": "tokenId",
          "type": "uint256"
        }
      ],
      "name": "transferFrom",
      "outputs": [],
      "stateMutability": "nonpayable",
      "type": "function"
    }
  ],
  "bytecode": "0x60806040523480156200001157600080fd5b506040518060400160405280600e81526020017f4e4654436f6c6c656374696f6e730000000000000000000000000000000000008152506040518060400160405280600381526020017f6e66740000000000000000000000000000000000000000000000000000000000815250816000908051906020019062000096929190620001cf565b508060019080519060200190620000af929190620001cf565b505050620000fd6040518060400160405280601881526020017f4e465420436f6c6c656374696f6e7320436f6e747261637400000000000000008152506200010360201b62000ad11760201c565b620003ac565b620001a3816040516024016200011a919062000323565b6040516020818303038152906040527f41304fac000000000000000000000000000000000000000000000000000000007bffffffffffffffffffffffffffffffffffffffffffffffffffffffff19166020820180517bffffffffffffffffffffffffffffffffffffffffffffffffffffffff8381831617835250505050620001a660201b60201c565b50565b60008151905060006a636f6e736f6c652e6c6f679050602083016000808483855afa5050505050565b828054620001dd9062000376565b90600052602060002090601f0160209004810192826200020157600085556200024d565b82601f106200021c57805160ff19168380011785556200024d565b828001600101855582156200024d579182015b828111156200024c5782518255916020019190600101906200022f565b5b5090506200025c919062000260565b5090565b5b808211156200027b57600081600090555060010162000261565b5090565b600081519050919050565b600082825260208201905092915050565b60005b83811015620002bb5780820151818401526020810190506200029e565b83811115620002cb576000848401525b50505050565b6000601f19601f8301169050919050565b6000620002ef826200027f565b620002fb81856200028a565b93506200030d8185602086016200029b565b6200031881620002d1565b840191505092915050565b600060208201905081810360008301526200033f8184620002e2565b905092915050565b7f4e487b7100000000000000000000000000000000000000000000000000000000600052602260045260246000fd5b600060028204905060018216806200038f57607f821691505b60208210811415620003a657620003a562000347565b5b50919050565b6130e880620003bc6000396000f3fe608060405234801561001057600080fd5b50600436106100ea5760003560e01c806370a082311161008c578063b88d4fde11610066578063b88d4fde1461025b578063c87b56dd14610277578063e9605544146102a7578063e985e9c5146102c3576100ea565b806370a08231146101f157806395d89b4114610221578063a22cb4651461023f576100ea565b8063095ea7b3116100c8578063095ea7b31461016d57806323b872dd1461018957806342842e0e146101a55780636352211e146101c1576100ea565b806301ffc9a7146100ef57806306fdde031461011f578063081812fc1461013d575b600080fd5b61010960048036038101906101049190611df1565b6102f3565b6040516101169190611e39565b60405180910390f35b6101276103d5565b6040516101349190611eed565b60405180910390f35b61015760048036038101906101529190611f45565b610467565b6040516101649190611fb3565b60405180910390f35b61018760048036038101906101829190611ffa565b6104ad565b005b6101a3600480360381019061019e919061203a565b6105c5565b005b6101bf60048036038101906101ba919061203a565b610625565b005b6101db60048036038101906101d69190611f45565b610645565b6040516101e89190611fb3565b60405180910390f35b61020b6004803603810190610206919061208d565b6106cc565b60405161021891906120c9565b60405180910390f35b610229610784565b6040516102369190611eed565b60405180910390f35b61025960048036038101906102549190612110565b610816565b005b61027560048036038101906102709190612285565b61082c565b005b610291600480360381019061028c9190611f45565b61088e565b60405161029e9190611eed565b60405180910390f35b6102c160048036038101906102bc91906123a9565b61093e565b005b6102dd60048036038101906102d89190612421565b610a3d565b6040516102ea9190611e39565b60405180910390f35b60007f80ac58cd000000000000000000000000000000000000000000000000000000007bffffffffffffffffffffffffffffffffffffffffffffffffffffffff1916827bffffffffffffffffffffffffffffffffffffffffffffffffffffffff191614806103be57507f5b5e139f000000000000000000000000000000000000000000000000000000007bffffffffffffffffffffffffffffffffffffffffffffffffffffffff1916827bffffffffffffffffffffffffffffffffffffffffffffffffffffffff1916145b806103ce57506103cd82610b6a565b5b9050919050565b6060600080546103e490612490565b80601f016020809104026020016040519081016040528092919081815260200182805461041090612490565b801561045d5780601f106104325761010080835404028352916020019161045d565b820191906000526020600020905b81548152906001019060200180831161044057829003601f168201915b5050505050905090565b600061047282610bd4565b6004600083815260200190815260200160002060009054906101000a900473ffffffffffffffffffffffffffffffffffffffff169050919050565b60006104b882610645565b90508073ffffffffffffffffffffffffffffffffffffffff168373ffffffffffffffffffffffffffffffffffffffff161415610529576040517f08c379a000000000000000000000000000000000000000000000000000000000815260040161052090612534565b60405180910390fd5b8073ffffffffffffffffffffffffffffffffffffffff16610548610c1f565b73ffffffffffffffffffffffffffffffffffffffff161480610577575061057681610571610c1f565b610a3d565b5b6105b6576040517f08c379a00000000000000000000000000000000000000000000000000000000081526004016105ad906125c6565b60405180910390fd5b6105c08383610c27565b505050565b6105d66105d0610c1f565b82610ce0565b610615576040517f08c379a000000000000000000000000000000000000000000000000000000000815260040161060c90612658565b60405180910390fd5b610620838383610d75565b505050565b6106408383836040518060200160405280600081525061082c565b505050565b6000806106518361106f565b9050600073ffffffffffffffffffffffffffffffffffffffff168173ffffffffffffffffffffffffffffffffffffffff1614156106c3576040517f08c379a00000000000000000000000000000000000000000000000000000000081526004016106ba906126c4565b60405180910390fd5b80915050919050565b60008073ffffffffffffffffffffffffffffffffffffffff168273ffffffffffffffffffffffffffffffffffffffff16141561073d576040517f08c379a000000000000000000000000000000000000000000000000000000000815260040161073490612756565b60405180910390fd5b600360008373ffffffffffffffffffffffffffffffffffffffff1673ffffffffffffffffffffffffffffffffffffffff168152602001908152602001600020549050919050565b60606001805461079390612490565b80601f01602080910402602001604051908101604052809291908181526020018280546107bf90612490565b801561080c5780601f106107e15761010080835404028352916020019161080c565b820191906000526020600020905b8154815290600101906020018083116107ef57829003601f168201915b5050505050905090565b610828610821610c1f565b83836110ac565b5050565b61083d610837610c1f565b83610ce0565b61087c576040517f08c379a000000000000000000000000000000000000000000000000000000000815260040161087390612658565b60405180910390fd5b61088884848484611219565b50505050565b6060600061090e600684815481106108a9576108a8612776565b5b90600052602060002090600202016000016108c385611275565b600686815481106108d7576108d6612776565b5b90600052602060002090600202016001016040516020016108fa939291906129cb565b60405160208183030381529060405261134d565b90506000816040516020016109239190612a74565b60405160208183030381529060405290508092505050919050565b600061094a60076114e5565b905061095633826114f3565b6006604051806040016040528085815260200184815250908060018154018082558091505060019003906000526020600020906002020160009091909190915060008201518160000190805190602001906109b2929190611ce2565b5060208201518160010190805190602001906109cf929190611ce2565b5050506109f560405180606001604052806025815260200161304e602591398233611511565b6109ff60076115b0565b7f1c05098ed1ff38e6238d2b1b04b2c7977d4c94ce651bda6473f9dba8dbf01da03382604051610a30929190612a96565b60405180910390a1505050565b6000600560008473ffffffffffffffffffffffffffffffffffffffff1673ffffffffffffffffffffffffffffffffffffffff16815260200190815260200160002060008373ffffffffffffffffffffffffffffffffffffffff1673ffffffffffffffffffffffffffffffffffffffff16815260200190815260200160002060009054906101000a900460ff16905092915050565b610b6781604051602401610ae59190611eed565b6040516020818303038152906040527f41304fac000000000000000000000000000000000000000000000000000000007bffffffffffffffffffffffffffffffffffffffffffffffffffffffff19166020820180517bffffffffffffffffffffffffffffffffffffffffffffffffffffffff83818316178352505050506115c6565b50565b60007f01ffc9a7000000000000000000000000000000000000000000000000000000007bffffffffffffffffffffffffffffffffffffffffffffffffffffffff1916827bffffffffffffffffffffffffffffffffffffffffffffffffffffffff1916149050919050565b610bdd816115ef565b610c1c576040517f08c379a0000000000000000000000000000000000000000000000000000000008152600401610c13906126c4565b60405180910390fd5b50565b600033905090565b816004600083815260200190815260200160002060006101000a81548173ffffffffffffffffffffffffffffffffffffffff021916908373ffffffffffffffffffffffffffffffffffffffff160217905550808273ffffffffffffffffffffffffffffffffffffffff16610c9a83610645565b73ffffffffffffffffffffffffffffffffffffffff167f8c5be1e5ebec7d5bd14f71427d1e84f3dd0314c0f7b2291e5b200ac8c7c3b92560405160405180910390a45050565b600080610cec83610645565b90508073ffffffffffffffffffffffffffffffffffffffff168473ffffffffffffffffffffffffffffffffffffffff161480610d2e5750610d2d8185610a3d565b5b80610d6c57508373ffffffffffffffffffffffffffffffffffffffff16610d5484610467565b73ffffffffffffffffffffffffffffffffffffffff16145b91505092915050565b8273ffffffffffffffffffffffffffffffffffffffff16610d9582610645565b73ffffffffffffffffffffffffffffffffffffffff1614610deb576040517f08c379a0000000000000000000000000000000000000000000000000000000008152600401610de290612b31565b60405180910390fd5b600073ffffffffffffffffffffffffffffffffffffffff168273ffffffffffffffffffffffffffffffffffffffff161415610e5b576040517f08c379a0000000000000000000000000000000000000000000000000000000008152600401610e5290612bc3565b60405180910390fd5b610e688383836001611630565b8273ffffffffffffffffffffffffffffffffffffffff16610e8882610645565b73ffffffffffffffffffffffffffffffffffffffff1614610ede576040517f08c379a0000000000000000000000000000000000000000000000000000000008152600401610ed590612b31565b60405180910390fd5b6004600082815260200190815260200160002060006101000a81549073ffffffffffffffffffffffffffffffffffffffff02191690556001600360008573ffffffffffffffffffffffffffffffffffffffff1673ffffffffffffffffffffffffffffffffffffffff168152602001908152602001600020600082825403925050819055506001600360008473ffffffffffffffffffffffffffffffffffffffff1673ffffffffffffffffffffffffffffffffffffffff16815260200190815260200160002060008282540192505081905550816002600083815260200190815260200160002060006101000a81548173ffffffffffffffffffffffffffffffffffffffff021916908373ffffffffffffffffffffffffffffffffffffffff160217905550808273ffffffffffffffffffffffffffffffffffffffff168473ffffffffffffffffffffffffffffffffffffffff167fddf252ad1be2c89b69c2b068fc378daa952ba7f163c4a11628f55a4df523b3ef60405160405180910390a461106a8383836001611756565b505050565b60006002600083815260200190815260200160002060009054906101000a900473ffffffffffffffffffffffffffffffffffffffff169050919050565b8173ffffffffffffffffffffffffffffffffffffffff168373ffffffffffffffffffffffffffffffffffffffff16141561111b576040517f08c379a000000000000000000000000000000000000000000000000000000000815260040161111290612c2f565b60405180910390fd5b80600560008573ffffffffffffffffffffffffffffffffffffffff1673ffffffffffffffffffffffffffffffffffffffff16815260200190815260200160002060008473ffffffffffffffffffffffffffffffffffffffff1673ffffffffffffffffffffffffffffffffffffffff16815260200190815260200160002060006101000a81548160ff0219169083151502179055508173ffffffffffffffffffffffffffffffffffffffff168373ffffffffffffffffffffffffffffffffffffffff167f17307eab39ab6107e8899845ad3d59bd9653f200f220920489ca2b5937696c318360405161120c9190611e39565b60405180910390a3505050565b611224848484610d75565b6112308484848461175c565b61126f576040517f08c379a000000000000000000000000000000000000000000000000000000000815260040161126690612cc1565b60405180910390fd5b50505050565b606060006001611284846118f3565b01905060008167ffffffffffffffff8111156112a3576112a261215a565b5b6040519080825280601f01601f1916602001820160405280156112d55781602001600182028036833780820191505090505b509050600082602001820190505b600115611342578080600190039150507f3031323334353637383961626364656600000000000000000000000000000000600a86061a8153600a858161132c5761132b612ce1565b5b049450600085141561133d57611342565b6112e3565b819350505050919050565b6060600082519050600081141561137657604051806020016040528060008152509150506114e0565b600060036002836113879190612d3f565b6113919190612d95565b600461139d9190612dc6565b905060006020826113ae9190612d3f565b67ffffffffffffffff8111156113c7576113c661215a565b5b6040519080825280601f01601f1916602001820160405280156113f95781602001600182028036833780820191505090505b5090506000604051806060016040528060408152602001613073604091399050600181016020830160005b8681101561149d5760038101905062ffffff818a015116603f8160121c168401518060081b905060ff603f83600c1c1686015116810190508060081b905060ff603f8360061c1686015116810190508060081b905060ff603f831686015116810190508060e01b90508084526004840193505050611424565b5060038606600181146114b757600281146114c7576114d2565b613d3d60f01b60028303526114d2565b603d60f81b60018303525b508484525050819450505050505b919050565b600081600001549050919050565b61150d828260405180602001604052806000815250611a46565b5050565b6115ab83838360405160240161152993929190612e20565b6040516020818303038152906040527f1c7ec448000000000000000000000000000000000000000000000000000000007bffffffffffffffffffffffffffffffffffffffffffffffffffffffff19166020820180517bffffffffffffffffffffffffffffffffffffffffffffffffffffffff83818316178352505050506115c6565b505050565b6001816000016000828254019250508190555050565b60008151905060006a636f6e736f6c652e6c6f679050602083016000808483855afa5050505050565b60008073ffffffffffffffffffffffffffffffffffffffff166116118361106f565b73ffffffffffffffffffffffffffffffffffffffff1614159050919050565b600181111561175057600073ffffffffffffffffffffffffffffffffffffffff168473ffffffffffffffffffffffffffffffffffffffff16146116c45780600360008673ffffffffffffffffffffffffffffffffffffffff1673ffffffffffffffffffffffffffffffffffffffff16815260200190815260200160002060008282546116bc9190612e5e565b925050819055505b600073ffffffffffffffffffffffffffffffffffffffff168373ffffffffffffffffffffffffffffffffffffffff161461174f5780600360008573ffffffffffffffffffffffffffffffffffffffff1673ffffffffffffffffffffffffffffffffffffffff16815260200190815260200160002060008282546117479190612d3f565b925050819055505b5b50505050565b50505050565b600061177d8473ffffffffffffffffffffffffffffffffffffffff16611aa1565b156118e6578373ffffffffffffffffffffffffffffffffffffffff1663150b7a026117a6610c1f565b8786866040518563ffffffff1660e01b81526004016117c89493929190612ee7565b602060405180830381600087803b1580156117e257600080fd5b505af192505050801561181357506040513d601f19601f820116820180604052508101906118109190612f48565b60015b611896573d8060008114611843576040519150601f19603f3d011682016040523d82523d6000602084013e611848565b606091505b5060008151141561188e576040517f08c379a000000000000000000000000000000000000000000000000000000000815260040161188590612cc1565b60405180910390fd5b805181602001fd5b63150b7a0260e01b7bffffffffffffffffffffffffffffffffffffffffffffffffffffffff1916817bffffffffffffffffffffffffffffffffffffffffffffffffffffffff1916149150506118eb565b600190505b949350505050565b600080600090507a184f03e93ff9f4daa797ed6e38ed64bf6a1f0100000000000000008310611951577a184f03e93ff9f4daa797ed6e38ed64bf6a1f010000000000000000838161194757611946612ce1565b5b0492506040810190505b6d04ee2d6d415b85acef8100000000831061198e576d04ee2d6d415b85acef8100000000838161198457611983612ce1565b5b0492506020810190505b662386f26fc1000083106119bd57662386f26fc1000083816119b3576119b2612ce1565b5b0492506010810190505b6305f5e10083106119e6576305f5e10083816119dc576119db612ce1565b5b0492506008810190505b6127108310611a0b576127108381611a0157611a00612ce1565b5b0492506004810190505b60648310611a2e5760648381611a2457611a23612ce1565b5b0492506002810190505b600a8310611a3d576001810190505b80915050919050565b611a508383611ac4565b611a5d600084848461175c565b611a9c576040517f08c379a0000000000000000000000000000000000000000000000000000000008152600401611a9390612cc1565b60405180910390fd5b505050565b6000808273ffffffffffffffffffffffffffffffffffffffff163b119050919050565b600073ffffffffffffffffffffffffffffffffffffffff168273ffffffffffffffffffffffffffffffffffffffff161415611b34576040517f08c379a0000000000000000000000000000000000000000000000000000000008152600401611b2b90612fc1565b60405180910390fd5b611b3d816115ef565b15611b7d576040517f08c379a0000000000000000000000000000000000000000000000000000000008152600401611b749061302d565b60405180910390fd5b611b8b600083836001611630565b611b94816115ef565b15611bd4576040517f08c379a0000000000000000000000000000000000000000000000000000000008152600401611bcb9061302d565b60405180910390fd5b6001600360008473ffffffffffffffffffffffffffffffffffffffff1673ffffffffffffffffffffffffffffffffffffffff16815260200190815260200160002060008282540192505081905550816002600083815260200190815260200160002060006101000a81548173ffffffffffffffffffffffffffffffffffffffff021916908373ffffffffffffffffffffffffffffffffffffffff160217905550808273ffffffffffffffffffffffffffffffffffffffff16600073ffffffffffffffffffffffffffffffffffffffff167fddf252ad1be2c89b69c2b068fc378daa952ba7f163c4a11628f55a4df523b3ef60405160405180910390a4611cde600083836001611756565b5050565b828054611cee90612490565b90600052602060002090601f016020900481019282611d105760008555611d57565b82601f10611d2957805160ff1916838001178555611d57565b82800160010185558215611d57579182015b82811115611d56578251825591602001919060010190611d3b565b5b509050611d649190611d68565b5090565b5b80821115611d81576000816000905550600101611d69565b5090565b6000604051905090565b600080fd5b600080fd5b60007fffffffff0000000000000000000000000000000000000000000000000000000082169050919050565b611dce81611d99565b8114611dd957600080fd5b50565b600081359050611deb81611dc5565b92915050565b600060208284031215611e0757611e06611d8f565b5b6000611e1584828501611ddc565b91505092915050565b60008115159050919050565b611e3381611e1e565b82525050565b6000602082019050611e4e6000830184611e2a565b92915050565b600081519050919050565b600082825260208201905092915050565b60005b83811015611e8e578082015181840152602081019050611e73565b83811115611e9d576000848401525b50505050565b6000601f19601f8301169050919050565b6000611ebf82611e54565b611ec98185611e5f565b9350611ed9818560208601611e70565b611ee281611ea3565b840191505092915050565b60006020820190508181036000830152611f078184611eb4565b905092915050565b6000819050919050565b611f2281611f0f565b8114611f2d57600080fd5b50565b600081359050611f3f81611f19565b92915050565b600060208284031215611f5b57611f5a611d8f565b5b6000611f6984828501611f30565b91505092915050565b600073ffffffffffffffffffffffffffffffffffffffff82169050919050565b6000611f9d82611f72565b9050919050565b611fad81611f92565b82525050565b6000602082019050611fc86000830184611fa4565b92915050565b611fd781611f92565b8114611fe257600080fd5b50565b600081359050611ff481611fce565b92915050565b6000806040838503121561201157612010611d8f565b5b600061201f85828601611fe5565b925050602061203085828601611f30565b9150509250929050565b60008060006060848603121561205357612052611d8f565b5b600061206186828701611fe5565b935050602061207286828701611fe5565b925050604061208386828701611f30565b9150509250925092565b6000602082840312156120a3576120a2611d8f565b5b60006120b184828501611fe5565b91505092915050565b6120c381611f0f565b82525050565b60006020820190506120de60008301846120ba565b92915050565b6120ed81611e1e565b81146120f857600080fd5b50565b60008135905061210a816120e4565b92915050565b6000806040838503121561212757612126611d8f565b5b600061213585828601611fe5565b9250506020612146858286016120fb565b9150509250929050565b600080fd5b600080fd5b7f4e487b7100000000000000000000000000000000000000000000000000000000600052604160045260246000fd5b61219282611ea3565b810181811067ffffffffffffffff821117156121b1576121b061215a565b5b80604052505050565b60006121c4611d85565b90506121d08282612189565b919050565b600067ffffffffffffffff8211156121f0576121ef61215a565b5b6121f982611ea3565b9050602081019050919050565b82818337600083830152505050565b6000612228612223846121d5565b6121ba565b90508281526020810184848401111561224457612243612155565b5b61224f848285612206565b509392505050565b600082601f83011261226c5761226b612150565b5b813561227c848260208601612215565b91505092915050565b6000806000806080858703121561229f5761229e611d8f565b5b60006122ad87828801611fe5565b94505060206122be87828801611fe5565b93505060406122cf87828801611f30565b925050606085013567ffffffffffffffff8111156122f0576122ef611d94565b5b6122fc87828801612257565b91505092959194509250565b600067ffffffffffffffff8211156123235761232261215a565b5b61232c82611ea3565b9050602081019050919050565b600061234c61234784612308565b6121ba565b90508281526020810184848401111561236857612367612155565b5b612373848285612206565b509392505050565b600082601f8301126123905761238f612150565b5b81356123a0848260208601612339565b91505092915050565b600080604083850312156123c0576123bf611d8f565b5b600083013567ffffffffffffffff8111156123de576123dd611d94565b5b6123ea8582860161237b565b925050602083013567ffffffffffffffff81111561240b5761240a611d94565b5b6124178582860161237b565b9150509250929050565b6000806040838503121561243857612437611d8f565b5b600061244685828601611fe5565b925050602061245785828601611fe5565b9150509250929050565b7f4e487b7100000000000000000000000000000000000000000000000000000000600052602260045260246000fd5b600060028204905060018216806124a857607f821691505b602082108114156124bc576124bb612461565b5b50919050565b7f4552433732313a20617070726f76616c20746f2063757272656e74206f776e6560008201527f7200000000000000000000000000000000000000000000000000000000000000602082015250565b600061251e602183611e5f565b9150612529826124c2565b604082019050919050565b6000602082019050818103600083015261254d81612511565b9050919050565b7f4552433732313a20617070726f76652063616c6c6572206973206e6f7420746f60008201527f6b656e206f776e6572206f7220617070726f76656420666f7220616c6c000000602082015250565b60006125b0603d83611e5f565b91506125bb82612554565b604082019050919050565b600060208201905081810360008301526125df816125a3565b9050919050565b7f4552433732313a2063616c6c6572206973206e6f7420746f6b656e206f776e6560008201527f72206f7220617070726f76656400000000000000000000000000000000000000602082015250565b6000612642602d83611e5f565b915061264d826125e6565b604082019050919050565b6000602082019050818103600083015261267181612635565b9050919050565b7f4552433732313a20696e76616c696420746f6b656e2049440000000000000000600082015250565b60006126ae601883611e5f565b91506126b982612678565b602082019050919050565b600060208201905081810360008301526126dd816126a1565b9050919050565b7f4552433732313a2061646472657373207a65726f206973206e6f74206120766160008201527f6c6964206f776e65720000000000000000000000000000000000000000000000602082015250565b6000612740602983611e5f565b915061274b826126e4565b604082019050919050565b6000602082019050818103600083015261276f81612733565b9050919050565b7f4e487b7100000000000000000000000000000000000000000000000000000000600052603260045260246000fd5b600081905092915050565b7f7b226e616d65223a202200000000000000000000000000000000000000000000600082015250565b60006127e6600a836127a5565b91506127f1826127b0565b600a82019050919050565b60008190508160005260206000209050919050565b6000815461281e81612490565b61282881866127a5565b94506001821660008114612843576001811461285457612887565b60ff19831686528186019350612887565b61285d856127fc565b60005b8381101561287f57815481890152600182019150602081019050612860565b838801955050505b50505092915050565b7f202d2d204e465420233a20000000000000000000000000000000000000000000600082015250565b60006128c6600b836127a5565b91506128d182612890565b600b82019050919050565b60006128e782611e54565b6128f181856127a5565b9350612901818560208601611e70565b80840191505092915050565b7f222c20226465736372697074696f6e223a2022416e2065706963204e4654222c60008201527f2022696d616765223a2022697066733a2f2f0000000000000000000000000000602082015250565b60006129696032836127a5565b91506129748261290d565b603282019050919050565b7f227d000000000000000000000000000000000000000000000000000000000000600082015250565b60006129b56002836127a5565b91506129c08261297f565b600282019050919050565b60006129d6826127d9565b91506129e28286612811565b91506129ed826128b9565b91506129f982856128dc565b9150612a048261295c565b9150612a108284612811565b9150612a1b826129a8565b9150819050949350505050565b7f646174613a6170706c69636174696f6e2f6a736f6e3b6261736536342c000000600082015250565b6000612a5e601d836127a5565b9150612a6982612a28565b601d82019050919050565b6000612a7f82612a51565b9150612a8b82846128dc565b915081905092915050565b6000604082019050612aab6000830185611fa4565b612ab860208301846120ba565b9392505050565b7f4552433732313a207472616e736665722066726f6d20696e636f72726563742060008201527f6f776e6572000000000000000000000000000000000000000000000000000000602082015250565b6000612b1b602583611e5f565b9150612b2682612abf565b604082019050919050565b60006020820190508181036000830152612b4a81612b0e565b9050919050565b7f4552433732313a207472616e7366657220746f20746865207a65726f2061646460008201527f7265737300000000000000000000000000000000000000000000000000000000602082015250565b6000612bad602483611e5f565b9150612bb882612b51565b604082019050919050565b60006020820190508181036000830152612bdc81612ba0565b9050919050565b7f4552433732313a20617070726f766520746f2063616c6c657200000000000000600082015250565b6000612c19601983611e5f565b9150612c2482612be3565b602082019050919050565b60006020820190508181036000830152612c4881612c0c565b9050919050565b7f4552433732313a207472616e7366657220746f206e6f6e20455243373231526560008201527f63656976657220696d706c656d656e7465720000000000000000000000000000602082015250565b6000612cab603283611e5f565b9150612cb682612c4f565b604082019050919050565b60006020820190508181036000830152612cda81612c9e565b9050919050565b7f4e487b7100000000000000000000000000000000000000000000000000000000600052601260045260246000fd5b7f4e487b7100000000000000000000000000000000000000000000000000000000600052601160045260246000fd5b6000612d4a82611f0f565b9150612d5583611f0f565b9250827fffffffffffffffffffffffffffffffffffffffffffffffffffffffffffffffff03821115612d8a57612d89612d10565b5b828201905092915050565b6000612da082611f0f565b9150612dab83611f0f565b925082612dbb57612dba612ce1565b5b828204905092915050565b6000612dd182611f0f565b9150612ddc83611f0f565b9250817fffffffffffffffffffffffffffffffffffffffffffffffffffffffffffffffff0483118215151615612e1557612e14612d10565b5b828202905092915050565b60006060820190508181036000830152612e3a8186611eb4565b9050612e4960208301856120ba565b612e566040830184611fa4565b949350505050565b6000612e6982611f0f565b9150612e7483611f0f565b925082821015612e8757612e86612d10565b5b828203905092915050565b600081519050919050565b600082825260208201905092915050565b6000612eb982612e92565b612ec38185612e9d565b9350612ed3818560208601611e70565b612edc81611ea3565b840191505092915050565b6000608082019050612efc6000830187611fa4565b612f096020830186611fa4565b612f1660408301856120ba565b8181036060830152612f288184612eae565b905095945050505050565b600081519050612f4281611dc5565b92915050565b600060208284031215612f5e57612f5d611d8f565b5b6000612f6c84828501612f33565b91505092915050565b7f4552433732313a206d696e7420746f20746865207a65726f2061646472657373600082015250565b6000612fab602083611e5f565b9150612fb682612f75565b602082019050919050565b60006020820190508181036000830152612fda81612f9e565b9050919050565b7f4552433732313a20746f6b656e20616c7265616479206d696e74656400000000600082015250565b6000613017601c83611e5f565b915061302282612fe1565b602082019050919050565b600060208201905081810360008301526130468161300a565b905091905056fe416e204e465420772f20494420257320686173206265656e206d696e74656420746f2025734142434445464748494a4b4c4d4e4f505152535455565758595a6162636465666768696a6b6c6d6e6f707172737475767778797a303132333435363738392b2fa2646970667358221220c236d615f5265c74a76e33556e6f88b8214976d5b6bbbff673c7aed06b2d1c9764736f6c63430008090033",
  "linkReferences": {},
  "deployedLinkReferences": {}
}