{
  "_format": "hh-sol-artifact-1",
  "contractName": "NFTMaker",
  "sourceName": "contracts/NFTMaker.sol",
  "abi": [
    {
      "inputs": [],
      "stateMutability": "nonpayable",
      "type": "constructor"
    },
    {
      "anonymous": false,
      "inputs": [
        {
          "indexed": true,
          "internalType": "address",
          "name": "owner",
          "type": "address"
        },
        {
          "indexed": true,
          "internalType": "address",
          "name": "approved",
          "type": "address"
        },
        {
          "indexed": true,
          "internalType": "uint256",
          "name": "tokenId",
          "type": "uint256"
        }
      ],
      "name": "Approval",
      "type": "event"
    },
    {
      "anonymous": false,
      "inputs": [
        {
          "indexed": true,
          "internalType": "address",
          "name": "owner",
          "type": "address"
        },
        {
          "indexed": true,
          "internalType": "address",
          "name": "operator",
          "type": "address"
        },
        {
          "indexed": false,
          "internalType": "bool",
          "name": "approved",
          "type": "bool"
        }
      ],
      "name": "ApprovalForAll",
      "type": "event"
    },
    {
      "anonymous": false,
      "inputs": [
        {
          "indexed": false,
          "internalType": "address",
          "name": "sender",
          "type": "address"
        },
        {
          "indexed": false,
          "internalType": "uint256",
          "name": "tokenId",
          "type": "uint256"
        }
      ],
      "name": "NewNFTMinted",
      "type": "event"
    },
    {
      "anonymous": false,
      "inputs": [
        {
          "indexed": true,
          "internalType": "address",
          "name": "from",
          "type": "address"
        },
        {
          "indexed": true,
          "internalType": "address",
          "name": "to",
          "type": "address"
        },
        {
          "indexed": true,
          "internalType": "uint256",
          "name": "tokenId",
          "type": "uint256"
        }
      ],
      "name": "Transfer",
      "type": "event"
    },
    {
      "inputs": [
        {
          "internalType": "address",
          "name": "to",
          "type": "address"
        },
        {
          "internalType": "uint256",
          "name": "tokenId",
          "type": "uint256"
        }
      ],
      "name": "approve",
      "outputs": [],
      "stateMutability": "nonpayable",
      "type": "function"
    },
    {
      "inputs": [
        {
          "internalType": "address",
          "name": "owner",
          "type": "address"
        }
      ],
      "name": "balanceOf",
      "outputs": [
        {
          "internalType": "uint256",
          "name": "",
          "type": "uint256"
        }
      ],
      "stateMutability": "view",
      "type": "function"
    },
    {
      "inputs": [
        {
          "internalType": "uint256",
          "name": "tokenId",
          "type": "uint256"
        }
      ],
      "name": "getApproved",
      "outputs": [
        {
          "internalType": "address",
          "name": "",
          "type": "address"
        }
      ],
      "stateMutability": "view",
      "type": "function"
    },
    {
      "inputs": [
        {
          "internalType": "address",
          "name": "owner",
          "type": "address"
        },
        {
          "internalType": "address",
          "name": "operator",
          "type": "address"
        }
      ],
      "name": "isApprovedForAll",
      "outputs": [
        {
          "internalType": "bool",
          "name": "",
          "type": "bool"
        }
      ],
      "stateMutability": "view",
      "type": "function"
    },
    {
      "inputs": [
        {
          "internalType": "string",
          "name": "name",
          "type": "string"
        },
        {
          "internalType": "string",
          "name": "imageURI",
          "type": "string"
        }
      ],
      "name": "mintNFT",
      "outputs": [],
      "stateMutability": "nonpayable",
      "type": "function"
    },
    {
      "inputs": [],
      "name": "name",
      "outputs": [
        {
          "internalType": "string",
          "name": "",
          "type": "string"
        }
      ],
      "stateMutability": "view",
      "type": "function"
    },
    {
      "inputs": [
        {
          "internalType": "uint256",
          "name": "tokenId",
          "type": "uint256"
        }
      ],
      "name": "ownerOf",
      "outputs": [
        {
          "internalType": "address",
          "name": "",
          "type": "address"
        }
      ],
      "stateMutability": "view",
      "type": "function"
    },
    {
      "inputs": [
        {
          "internalType": "address",
          "name": "from",
          "type": "address"
        },
        {
          "internalType": "address",
          "name": "to",
          "type": "address"
        },
        {
          "internalType": "uint256",
          "name": "tokenId",
          "type": "uint256"
        }
      ],
      "name": "safeTransferFrom",
      "outputs": [],
      "stateMutability": "nonpayable",
      "type": "function"
    },
    {
      "inputs": [
        {
          "internalType": "address",
          "name": "from",
          "type": "address"
        },
        {
          "internalType": "address",
          "name": "to",
          "type": "address"
        },
        {
          "internalType": "uint256",
          "name": "tokenId",
          "type": "uint256"
        },
        {
          "internalType": "bytes",
          "name": "data",
          "type": "bytes"
        }
      ],
      "name": "safeTransferFrom",
      "outputs": [],
      "stateMutability": "nonpayable",
      "type": "function"
    },
    {
      "inputs": [
        {
          "internalType": "address",
          "name": "operator",
          "type": "address"
        },
        {
          "internalType": "bool",
          "name": "approved",
          "type": "bool"
        }
      ],
      "name": "setApprovalForAll",
      "outputs": [],
      "stateMutability": "nonpayable",
      "type": "function"
    },
    {
      "inputs": [
        {
          "internalType": "bytes4",
          "name": "interfaceId",
          "type": "bytes4"
        }
      ],
      "name": "supportsInterface",
      "outputs": [
        {
          "internalType": "bool",
          "name": "",
          "type": "bool"
        }
      ],
      "stateMutability": "view",
      "type": "function"
    },
    {
      "inputs": [],
      "name": "symbol",
      "outputs": [
        {
          "internalType": "string",
          "name": "",
          "type": "string"
        }
      ],
      "stateMutability": "view",
      "type": "function"
    },
    {
      "inputs": [
        {
          "internalType": "uint256",
          "name": "_tokenId",
          "type": "uint256"
        }
      ],
      "name": "tokenURI",
      "outputs": [
        {
          "internalType": "string",
          "name": "",
          "type": "string"
        }
      ],
      "stateMutability": "view",
      "type": "function"
    },
    {
      "inputs": [
        {
          "internalType": "address",
          "name": "from",
          "type": "address"
        },
        {
          "internalType": "address",
          "name": "to",
          "type": "address"
        },
        {
          "internalType": "uint256",
          "name": "tokenId",
          "type": "uint256"
        }
      ],
      "name": "transferFrom",
      "outputs": [],
      "stateMutability": "nonpayable",
      "type": "function"
    }
  ],
  "bytecode": "0x60806040523480156200001157600080fd5b506040518060400160405280600e81526020017f4e4654436f6c6c656374696f6e730000000000000000000000000000000000008152506040518060400160405280600381526020017f6e66740000000000000000000000000000000000000000000000000000000000815250816000908051906020019062000096929190620001cf565b508060019080519060200190620000af929190620001cf565b505050620000fd6040518060400160405280601881526020017f4e465420436f6c6c656374696f6e7320436f6e747261637400000000000000008152506200010360201b62000ac71760201c565b620003ac565b620001a3816040516024016200011a919062000323565b6040516020818303038152906040527f41304fac000000000000000000000000000000000000000000000000000000007bffffffffffffffffffffffffffffffffffffffffffffffffffffffff19166020820180517bffffffffffffffffffffffffffffffffffffffffffffffffffffffff8381831617835250505050620001a660201b60201c565b50565b60008151905060006a636f6e736f6c652e6c6f679050602083016000808483855afa5050505050565b828054620001dd9062000376565b90600052602060002090601f0160209004810192826200020157600085556200024d565b82601f106200021c57805160ff19168380011785556200024d565b828001600101855582156200024d579182015b828111156200024c5782518255916020019190600101906200022f565b5b5090506200025c919062000260565b5090565b5b808211156200027b57600081600090555060010162000261565b5090565b600081519050919050565b600082825260208201905092915050565b60005b83811015620002bb5780820151818401526020810190506200029e565b83811115620002cb576000848401525b50505050565b6000601f19601f8301169050919050565b6000620002ef826200027f565b620002fb81856200028a565b93506200030d8185602086016200029b565b6200031881620002d1565b840191505092915050565b600060208201905081810360008301526200033f8184620002e2565b905092915050565b7f4e487b7100000000000000000000000000000000000000000000000000000000600052602260045260246000fd5b600060028204905060018216806200038f57607f821691505b60208210811415620003a657620003a562000347565b5b50919050565b6130c880620003bc6000396000f3fe608060405234801561001057600080fd5b50600436106100ea5760003560e01c806370a082311161008c578063b88d4fde11610066578063b88d4fde1461025b578063c87b56dd14610277578063e9605544146102a7578063e985e9c5146102c3576100ea565b806370a08231146101f157806395d89b4114610221578063a22cb4651461023f576100ea565b8063095ea7b3116100c8578063095ea7b31461016d57806323b872dd1461018957806342842e0e146101a55780636352211e146101c1576100ea565b806301ffc9a7146100ef57806306fdde031461011f578063081812fc1461013d575b600080fd5b61010960048036038101906101049190611dd1565b6102f3565b6040516101169190611e19565b60405180910390f35b6101276103d5565b6040516101349190611ecd565b60405180910390f35b61015760048036038101906101529190611f25565b610467565b6040516101649190611f93565b60405180910390f35b61018760048036038101906101829190611fda565b6104ad565b005b6101a3600480360381019061019e919061201a565b6105c5565b005b6101bf60048036038101906101ba919061201a565b610625565b005b6101db60048036038101906101d69190611f25565b610645565b6040516101e89190611f93565b60405180910390f35b61020b6004803603810190610206919061206d565b6106cc565b60405161021891906120a9565b60405180910390f35b610229610784565b6040516102369190611ecd565b60405180910390f35b610259600480360381019061025491906120f0565b610816565b005b61027560048036038101906102709190612265565b61082c565b005b610291600480360381019061028c9190611f25565b61088e565b60405161029e9190611ecd565b60405180910390f35b6102c160048036038101906102bc9190612389565b61093e565b005b6102dd60048036038101906102d89190612401565b610a33565b6040516102ea9190611e19565b60405180910390f35b60007f80ac58cd000000000000000000000000000000000000000000000000000000007bffffffffffffffffffffffffffffffffffffffffffffffffffffffff1916827bffffffffffffffffffffffffffffffffffffffffffffffffffffffff191614806103be57507f5b5e139f000000000000000000000000000000000000000000000000000000007bffffffffffffffffffffffffffffffffffffffffffffffffffffffff1916827bffffffffffffffffffffffffffffffffffffffffffffffffffffffff1916145b806103ce57506103cd82610b60565b5b9050919050565b6060600080546103e490612470565b80601f016020809104026020016040519081016040528092919081815260200182805461041090612470565b801561045d5780601f106104325761010080835404028352916020019161045d565b820191906000526020600020905b81548152906001019060200180831161044057829003601f168201915b5050505050905090565b600061047282610bca565b6004600083815260200190815260200160002060009054906101000a900473ffffffffffffffffffffffffffffffffffffffff169050919050565b60006104b882610645565b90508073ffffffffffffffffffffffffffffffffffffffff168373ffffffffffffffffffffffffffffffffffffffff161415610529576040517f08c379a000000000000000000000000000000000000000000000000000000000815260040161052090612514565b60405180910390fd5b8073ffffffffffffffffffffffffffffffffffffffff16610548610c15565b73ffffffffffffffffffffffffffffffffffffffff161480610577575061057681610571610c15565b610a33565b5b6105b6576040517f08c379a00000000000000000000000000000000000000000000000000000000081526004016105ad906125a6565b60405180910390fd5b6105c08383610c1d565b505050565b6105d66105d0610c15565b82610cd6565b610615576040517f08c379a000000000000000000000000000000000000000000000000000000000815260040161060c90612638565b60405180910390fd5b610620838383610d6b565b505050565b6106408383836040518060200160405280600081525061082c565b505050565b60008061065183611065565b9050600073ffffffffffffffffffffffffffffffffffffffff168173ffffffffffffffffffffffffffffffffffffffff1614156106c3576040517f08c379a00000000000000000000000000000000000000000000000000000000081526004016106ba906126a4565b60405180910390fd5b80915050919050565b60008073ffffffffffffffffffffffffffffffffffffffff168273ffffffffffffffffffffffffffffffffffffffff16141561073d576040517f08c379a000000000000000000000000000000000000000000000000000000000815260040161073490612736565b60405180910390fd5b600360008373ffffffffffffffffffffffffffffffffffffffff1673ffffffffffffffffffffffffffffffffffffffff168152602001908152602001600020549050919050565b60606001805461079390612470565b80601f01602080910402602001604051908101604052809291908181526020018280546107bf90612470565b801561080c5780601f106107e15761010080835404028352916020019161080c565b820191906000526020600020905b8154815290600101906020018083116107ef57829003601f168201915b5050505050905090565b610828610821610c15565b83836110a2565b5050565b61083d610837610c15565b83610cd6565b61087c576040517f08c379a000000000000000000000000000000000000000000000000000000000815260040161087390612638565b60405180910390fd5b6108888484848461120f565b50505050565b6060600061090e600684815481106108a9576108a8612756565b5b90600052602060002090600202016000016108c38561126b565b600686815481106108d7576108d6612756565b5b90600052602060002090600202016001016040516020016108fa939291906129ab565b604051602081830303815290604052611343565b90506000816040516020016109239190612a54565b60405160208183030381529060405290508092505050919050565b600061094a60076114db565b905061095633826114e9565b6006604051806040016040528085815260200184815250908060018154018082558091505060019003906000526020600020906002020160009091909190915060008201518160000190805190602001906109b2929190611cc2565b5060208201518160010190805190602001906109cf929190611cc2565b5050506109f560405180606001604052806025815260200161302e602591398233611507565b7f1c05098ed1ff38e6238d2b1b04b2c7977d4c94ce651bda6473f9dba8dbf01da03382604051610a26929190612a76565b60405180910390a1505050565b6000600560008473ffffffffffffffffffffffffffffffffffffffff1673ffffffffffffffffffffffffffffffffffffffff16815260200190815260200160002060008373ffffffffffffffffffffffffffffffffffffffff1673ffffffffffffffffffffffffffffffffffffffff16815260200190815260200160002060009054906101000a900460ff16905092915050565b610b5d81604051602401610adb9190611ecd565b6040516020818303038152906040527f41304fac000000000000000000000000000000000000000000000000000000007bffffffffffffffffffffffffffffffffffffffffffffffffffffffff19166020820180517bffffffffffffffffffffffffffffffffffffffffffffffffffffffff83818316178352505050506115a6565b50565b60007f01ffc9a7000000000000000000000000000000000000000000000000000000007bffffffffffffffffffffffffffffffffffffffffffffffffffffffff1916827bffffffffffffffffffffffffffffffffffffffffffffffffffffffff1916149050919050565b610bd3816115cf565b610c12576040517f08c379a0000000000000000000000000000000000000000000000000000000008152600401610c09906126a4565b60405180910390fd5b50565b600033905090565b816004600083815260200190815260200160002060006101000a81548173ffffffffffffffffffffffffffffffffffffffff021916908373ffffffffffffffffffffffffffffffffffffffff160217905550808273ffffffffffffffffffffffffffffffffffffffff16610c9083610645565b73ffffffffffffffffffffffffffffffffffffffff167f8c5be1e5ebec7d5bd14f71427d1e84f3dd0314c0f7b2291e5b200ac8c7c3b92560405160405180910390a45050565b600080610ce283610645565b90508073ffffffffffffffffffffffffffffffffffffffff168473ffffffffffffffffffffffffffffffffffffffff161480610d245750610d238185610a33565b5b80610d6257508373ffffffffffffffffffffffffffffffffffffffff16610d4a84610467565b73ffffffffffffffffffffffffffffffffffffffff16145b91505092915050565b8273ffffffffffffffffffffffffffffffffffffffff16610d8b82610645565b73ffffffffffffffffffffffffffffffffffffffff1614610de1576040517f08c379a0000000000000000000000000000000000000000000000000000000008152600401610dd890612b11565b60405180910390fd5b600073ffffffffffffffffffffffffffffffffffffffff168273ffffffffffffffffffffffffffffffffffffffff161415610e51576040517f08c379a0000000000000000000000000000000000000000000000000000000008152600401610e4890612ba3565b60405180910390fd5b610e5e8383836001611610565b8273ffffffffffffffffffffffffffffffffffffffff16610e7e82610645565b73ffffffffffffffffffffffffffffffffffffffff1614610ed4576040517f08c379a0000000000000000000000000000000000000000000000000000000008152600401610ecb90612b11565b60405180910390fd5b6004600082815260200190815260200160002060006101000a81549073ffffffffffffffffffffffffffffffffffffffff02191690556001600360008573ffffffffffffffffffffffffffffffffffffffff1673ffffffffffffffffffffffffffffffffffffffff168152602001908152602001600020600082825403925050819055506001600360008473ffffffffffffffffffffffffffffffffffffffff1673ffffffffffffffffffffffffffffffffffffffff16815260200190815260200160002060008282540192505081905550816002600083815260200190815260200160002060006101000a81548173ffffffffffffffffffffffffffffffffffffffff021916908373ffffffffffffffffffffffffffffffffffffffff160217905550808273ffffffffffffffffffffffffffffffffffffffff168473ffffffffffffffffffffffffffffffffffffffff167fddf252ad1be2c89b69c2b068fc378daa952ba7f163c4a11628f55a4df523b3ef60405160405180910390a46110608383836001611736565b505050565b60006002600083815260200190815260200160002060009054906101000a900473ffffffffffffffffffffffffffffffffffffffff169050919050565b8173ffffffffffffffffffffffffffffffffffffffff168373ffffffffffffffffffffffffffffffffffffffff161415611111576040517f08c379a000000000000000000000000000000000000000000000000000000000815260040161110890612c0f565b60405180910390fd5b80600560008573ffffffffffffffffffffffffffffffffffffffff1673ffffffffffffffffffffffffffffffffffffffff16815260200190815260200160002060008473ffffffffffffffffffffffffffffffffffffffff1673ffffffffffffffffffffffffffffffffffffffff16815260200190815260200160002060006101000a81548160ff0219169083151502179055508173ffffffffffffffffffffffffffffffffffffffff168373ffffffffffffffffffffffffffffffffffffffff167f17307eab39ab6107e8899845ad3d59bd9653f200f220920489ca2b5937696c31836040516112029190611e19565b60405180910390a3505050565b61121a848484610d6b565b6112268484848461173c565b611265576040517f08c379a000000000000000000000000000000000000000000000000000000000815260040161125c90612ca1565b60405180910390fd5b50505050565b60606000600161127a846118d3565b01905060008167ffffffffffffffff8111156112995761129861213a565b5b6040519080825280601f01601f1916602001820160405280156112cb5781602001600182028036833780820191505090505b509050600082602001820190505b600115611338578080600190039150507f3031323334353637383961626364656600000000000000000000000000000000600a86061a8153600a858161132257611321612cc1565b5b049450600085141561133357611338565b6112d9565b819350505050919050565b6060600082519050600081141561136c57604051806020016040528060008152509150506114d6565b6000600360028361137d9190612d1f565b6113879190612d75565b60046113939190612da6565b905060006020826113a49190612d1f565b67ffffffffffffffff8111156113bd576113bc61213a565b5b6040519080825280601f01601f1916602001820160405280156113ef5781602001600182028036833780820191505090505b5090506000604051806060016040528060408152602001613053604091399050600181016020830160005b868110156114935760038101905062ffffff818a015116603f8160121c168401518060081b905060ff603f83600c1c1686015116810190508060081b905060ff603f8360061c1686015116810190508060081b905060ff603f831686015116810190508060e01b9050808452600484019350505061141a565b5060038606600181146114ad57600281146114bd576114c8565b613d3d60f01b60028303526114c8565b603d60f81b60018303525b508484525050819450505050505b919050565b600081600001549050919050565b611503828260405180602001604052806000815250611a26565b5050565b6115a183838360405160240161151f93929190612e00565b6040516020818303038152906040527f1c7ec448000000000000000000000000000000000000000000000000000000007bffffffffffffffffffffffffffffffffffffffffffffffffffffffff19166020820180517bffffffffffffffffffffffffffffffffffffffffffffffffffffffff83818316178352505050506115a6565b505050565b60008151905060006a636f6e736f6c652e6c6f679050602083016000808483855afa5050505050565b60008073ffffffffffffffffffffffffffffffffffffffff166115f183611065565b73ffffffffffffffffffffffffffffffffffffffff1614159050919050565b600181111561173057600073ffffffffffffffffffffffffffffffffffffffff168473ffffffffffffffffffffffffffffffffffffffff16146116a45780600360008673ffffffffffffffffffffffffffffffffffffffff1673ffffffffffffffffffffffffffffffffffffffff168152602001908152602001600020600082825461169c9190612e3e565b925050819055505b600073ffffffffffffffffffffffffffffffffffffffff168373ffffffffffffffffffffffffffffffffffffffff161461172f5780600360008573ffffffffffffffffffffffffffffffffffffffff1673ffffffffffffffffffffffffffffffffffffffff16815260200190815260200160002060008282546117279190612d1f565b925050819055505b5b50505050565b50505050565b600061175d8473ffffffffffffffffffffffffffffffffffffffff16611a81565b156118c6578373ffffffffffffffffffffffffffffffffffffffff1663150b7a02611786610c15565b8786866040518563ffffffff1660e01b81526004016117a89493929190612ec7565b602060405180830381600087803b1580156117c257600080fd5b505af19250505080156117f357506040513d601f19601f820116820180604052508101906117f09190612f28565b60015b611876573d8060008114611823576040519150601f19603f3d011682016040523d82523d6000602084013e611828565b606091505b5060008151141561186e576040517f08c379a000000000000000000000000000000000000000000000000000000000815260040161186590612ca1565b60405180910390fd5b805181602001fd5b63150b7a0260e01b7bffffffffffffffffffffffffffffffffffffffffffffffffffffffff1916817bffffffffffffffffffffffffffffffffffffffffffffffffffffffff1916149150506118cb565b600190505b949350505050565b600080600090507a184f03e93ff9f4daa797ed6e38ed64bf6a1f0100000000000000008310611931577a184f03e93ff9f4daa797ed6e38ed64bf6a1f010000000000000000838161192757611926612cc1565b5b0492506040810190505b6d04ee2d6d415b85acef8100000000831061196e576d04ee2d6d415b85acef8100000000838161196457611963612cc1565b5b0492506020810190505b662386f26fc10000831061199d57662386f26fc10000838161199357611992612cc1565b5b0492506010810190505b6305f5e10083106119c6576305f5e10083816119bc576119bb612cc1565b5b0492506008810190505b61271083106119eb5761271083816119e1576119e0612cc1565b5b0492506004810190505b60648310611a0e5760648381611a0457611a03612cc1565b5b0492506002810190505b600a8310611a1d576001810190505b80915050919050565b611a308383611aa4565b611a3d600084848461173c565b611a7c576040517f08c379a0000000000000000000000000000000000000000000000000000000008152600401611a7390612ca1565b60405180910390fd5b505050565b6000808273ffffffffffffffffffffffffffffffffffffffff163b119050919050565b600073ffffffffffffffffffffffffffffffffffffffff168273ffffffffffffffffffffffffffffffffffffffff161415611b14576040517f08c379a0000000000000000000000000000000000000000000000000000000008152600401611b0b90612fa1565b60405180910390fd5b611b1d816115cf565b15611b5d576040517f08c379a0000000000000000000000000000000000000000000000000000000008152600401611b549061300d565b60405180910390fd5b611b6b600083836001611610565b611b74816115cf565b15611bb4576040517f08c379a0000000000000000000000000000000000000000000000000000000008152600401611bab9061300d565b60405180910390fd5b6001600360008473ffffffffffffffffffffffffffffffffffffffff1673ffffffffffffffffffffffffffffffffffffffff16815260200190815260200160002060008282540192505081905550816002600083815260200190815260200160002060006101000a81548173ffffffffffffffffffffffffffffffffffffffff021916908373ffffffffffffffffffffffffffffffffffffffff160217905550808273ffffffffffffffffffffffffffffffffffffffff16600073ffffffffffffffffffffffffffffffffffffffff167fddf252ad1be2c89b69c2b068fc378daa952ba7f163c4a11628f55a4df523b3ef60405160405180910390a4611cbe600083836001611736565b5050565b828054611cce90612470565b90600052602060002090601f016020900481019282611cf05760008555611d37565b82601f10611d0957805160ff1916838001178555611d37565b82800160010185558215611d37579182015b82811115611d36578251825591602001919060010190611d1b565b5b509050611d449190611d48565b5090565b5b80821115611d61576000816000905550600101611d49565b5090565b6000604051905090565b600080fd5b600080fd5b60007fffffffff0000000000000000000000000000000000000000000000000000000082169050919050565b611dae81611d79565b8114611db957600080fd5b50565b600081359050611dcb81611da5565b92915050565b600060208284031215611de757611de6611d6f565b5b6000611df584828501611dbc565b91505092915050565b60008115159050919050565b611e1381611dfe565b82525050565b6000602082019050611e2e6000830184611e0a565b92915050565b600081519050919050565b600082825260208201905092915050565b60005b83811015611e6e578082015181840152602081019050611e53565b83811115611e7d576000848401525b50505050565b6000601f19601f8301169050919050565b6000611e9f82611e34565b611ea98185611e3f565b9350611eb9818560208601611e50565b611ec281611e83565b840191505092915050565b60006020820190508181036000830152611ee78184611e94565b905092915050565b6000819050919050565b611f0281611eef565b8114611f0d57600080fd5b50565b600081359050611f1f81611ef9565b92915050565b600060208284031215611f3b57611f3a611d6f565b5b6000611f4984828501611f10565b91505092915050565b600073ffffffffffffffffffffffffffffffffffffffff82169050919050565b6000611f7d82611f52565b9050919050565b611f8d81611f72565b82525050565b6000602082019050611fa86000830184611f84565b92915050565b611fb781611f72565b8114611fc257600080fd5b50565b600081359050611fd481611fae565b92915050565b60008060408385031215611ff157611ff0611d6f565b5b6000611fff85828601611fc5565b925050602061201085828601611f10565b9150509250929050565b60008060006060848603121561203357612032611d6f565b5b600061204186828701611fc5565b935050602061205286828701611fc5565b925050604061206386828701611f10565b9150509250925092565b60006020828403121561208357612082611d6f565b5b600061209184828501611fc5565b91505092915050565b6120a381611eef565b82525050565b60006020820190506120be600083018461209a565b92915050565b6120cd81611dfe565b81146120d857600080fd5b50565b6000813590506120ea816120c4565b92915050565b6000806040838503121561210757612106611d6f565b5b600061211585828601611fc5565b9250506020612126858286016120db565b9150509250929050565b600080fd5b600080fd5b7f4e487b7100000000000000000000000000000000000000000000000000000000600052604160045260246000fd5b61217282611e83565b810181811067ffffffffffffffff821117156121915761219061213a565b5b80604052505050565b60006121a4611d65565b90506121b08282612169565b919050565b600067ffffffffffffffff8211156121d0576121cf61213a565b5b6121d982611e83565b9050602081019050919050565b82818337600083830152505050565b6000612208612203846121b5565b61219a565b90508281526020810184848401111561222457612223612135565b5b61222f8482856121e6565b509392505050565b600082601f83011261224c5761224b612130565b5b813561225c8482602086016121f5565b91505092915050565b6000806000806080858703121561227f5761227e611d6f565b5b600061228d87828801611fc5565b945050602061229e87828801611fc5565b93505060406122af87828801611f10565b925050606085013567ffffffffffffffff8111156122d0576122cf611d74565b5b6122dc87828801612237565b91505092959194509250565b600067ffffffffffffffff8211156123035761230261213a565b5b61230c82611e83565b9050602081019050919050565b600061232c612327846122e8565b61219a565b90508281526020810184848401111561234857612347612135565b5b6123538482856121e6565b509392505050565b600082601f8301126123705761236f612130565b5b8135612380848260208601612319565b91505092915050565b600080604083850312156123a05761239f611d6f565b5b600083013567ffffffffffffffff8111156123be576123bd611d74565b5b6123ca8582860161235b565b925050602083013567ffffffffffffffff8111156123eb576123ea611d74565b5b6123f78582860161235b565b9150509250929050565b6000806040838503121561241857612417611d6f565b5b600061242685828601611fc5565b925050602061243785828601611fc5565b9150509250929050565b7f4e487b7100000000000000000000000000000000000000000000000000000000600052602260045260246000fd5b6000600282049050600182168061248857607f821691505b6020821081141561249c5761249b612441565b5b50919050565b7f4552433732313a20617070726f76616c20746f2063757272656e74206f776e6560008201527f7200000000000000000000000000000000000000000000000000000000000000602082015250565b60006124fe602183611e3f565b9150612509826124a2565b604082019050919050565b6000602082019050818103600083015261252d816124f1565b9050919050565b7f4552433732313a20617070726f76652063616c6c6572206973206e6f7420746f60008201527f6b656e206f776e6572206f7220617070726f76656420666f7220616c6c000000602082015250565b6000612590603d83611e3f565b915061259b82612534565b604082019050919050565b600060208201905081810360008301526125bf81612583565b9050919050565b7f4552433732313a2063616c6c6572206973206e6f7420746f6b656e206f776e6560008201527f72206f7220617070726f76656400000000000000000000000000000000000000602082015250565b6000612622602d83611e3f565b915061262d826125c6565b604082019050919050565b6000602082019050818103600083015261265181612615565b9050919050565b7f4552433732313a20696e76616c696420746f6b656e2049440000000000000000600082015250565b600061268e601883611e3f565b915061269982612658565b602082019050919050565b600060208201905081810360008301526126bd81612681565b9050919050565b7f4552433732313a2061646472657373207a65726f206973206e6f74206120766160008201527f6c6964206f776e65720000000000000000000000000000000000000000000000602082015250565b6000612720602983611e3f565b915061272b826126c4565b604082019050919050565b6000602082019050818103600083015261274f81612713565b9050919050565b7f4e487b7100000000000000000000000000000000000000000000000000000000600052603260045260246000fd5b600081905092915050565b7f7b226e616d65223a202200000000000000000000000000000000000000000000600082015250565b60006127c6600a83612785565b91506127d182612790565b600a82019050919050565b60008190508160005260206000209050919050565b600081546127fe81612470565b6128088186612785565b94506001821660008114612823576001811461283457612867565b60ff19831686528186019350612867565b61283d856127dc565b60005b8381101561285f57815481890152600182019150602081019050612840565b838801955050505b50505092915050565b7f202d2d204e465420233a20000000000000000000000000000000000000000000600082015250565b60006128a6600b83612785565b91506128b182612870565b600b82019050919050565b60006128c782611e34565b6128d18185612785565b93506128e1818560208601611e50565b80840191505092915050565b7f222c20226465736372697074696f6e223a2022416e2065706963204e4654222c60008201527f2022696d616765223a2022697066733a2f2f0000000000000000000000000000602082015250565b6000612949603283612785565b9150612954826128ed565b603282019050919050565b7f227d000000000000000000000000000000000000000000000000000000000000600082015250565b6000612995600283612785565b91506129a08261295f565b600282019050919050565b60006129b6826127b9565b91506129c282866127f1565b91506129cd82612899565b91506129d982856128bc565b91506129e48261293c565b91506129f082846127f1565b91506129fb82612988565b9150819050949350505050565b7f646174613a6170706c69636174696f6e2f6a736f6e3b62617365363400000000600082015250565b6000612a3e601c83612785565b9150612a4982612a08565b601c82019050919050565b6000612a5f82612a31565b9150612a6b82846128bc565b915081905092915050565b6000604082019050612a8b6000830185611f84565b612a98602083018461209a565b9392505050565b7f4552433732313a207472616e736665722066726f6d20696e636f72726563742060008201527f6f776e6572000000000000000000000000000000000000000000000000000000602082015250565b6000612afb602583611e3f565b9150612b0682612a9f565b604082019050919050565b60006020820190508181036000830152612b2a81612aee565b9050919050565b7f4552433732313a207472616e7366657220746f20746865207a65726f2061646460008201527f7265737300000000000000000000000000000000000000000000000000000000602082015250565b6000612b8d602483611e3f565b9150612b9882612b31565b604082019050919050565b60006020820190508181036000830152612bbc81612b80565b9050919050565b7f4552433732313a20617070726f766520746f2063616c6c657200000000000000600082015250565b6000612bf9601983611e3f565b9150612c0482612bc3565b602082019050919050565b60006020820190508181036000830152612c2881612bec565b9050919050565b7f4552433732313a207472616e7366657220746f206e6f6e20455243373231526560008201527f63656976657220696d706c656d656e7465720000000000000000000000000000602082015250565b6000612c8b603283611e3f565b9150612c9682612c2f565b604082019050919050565b60006020820190508181036000830152612cba81612c7e565b9050919050565b7f4e487b7100000000000000000000000000000000000000000000000000000000600052601260045260246000fd5b7f4e487b7100000000000000000000000000000000000000000000000000000000600052601160045260246000fd5b6000612d2a82611eef565b9150612d3583611eef565b9250827fffffffffffffffffffffffffffffffffffffffffffffffffffffffffffffffff03821115612d6a57612d69612cf0565b5b828201905092915050565b6000612d8082611eef565b9150612d8b83611eef565b925082612d9b57612d9a612cc1565b5b828204905092915050565b6000612db182611eef565b9150612dbc83611eef565b9250817fffffffffffffffffffffffffffffffffffffffffffffffffffffffffffffffff0483118215151615612df557612df4612cf0565b5b828202905092915050565b60006060820190508181036000830152612e1a8186611e94565b9050612e29602083018561209a565b612e366040830184611f84565b949350505050565b6000612e4982611eef565b9150612e5483611eef565b925082821015612e6757612e66612cf0565b5b828203905092915050565b600081519050919050565b600082825260208201905092915050565b6000612e9982612e72565b612ea38185612e7d565b9350612eb3818560208601611e50565b612ebc81611e83565b840191505092915050565b6000608082019050612edc6000830187611f84565b612ee96020830186611f84565b612ef6604083018561209a565b8181036060830152612f088184612e8e565b905095945050505050565b600081519050612f2281611da5565b92915050565b600060208284031215612f3e57612f3d611d6f565b5b6000612f4c84828501612f13565b91505092915050565b7f4552433732313a206d696e7420746f20746865207a65726f2061646472657373600082015250565b6000612f8b602083611e3f565b9150612f9682612f55565b602082019050919050565b60006020820190508181036000830152612fba81612f7e565b9050919050565b7f4552433732313a20746f6b656e20616c7265616479206d696e74656400000000600082015250565b6000612ff7601c83611e3f565b915061300282612fc1565b602082019050919050565b6000602082019050818103600083015261302681612fea565b905091905056fe416e204e465420772f20494420257320686173206265656e206d696e74656420746f2025734142434445464748494a4b4c4d4e4f505152535455565758595a6162636465666768696a6b6c6d6e6f707172737475767778797a303132333435363738392b2fa26469706673582212205c40e541c79b369adc13cf2b47c98637a697ad0535d1d942dc6859af523d194664736f6c63430008090033",
  "linkReferences": {},
  "deployedLinkReferences": {}
}